:1000000012C019C018C017C016C015C014C013C044
:1000100012C011C010C00FC00EC00DC00CC00BC06C
:100020000AC009C008C011241FBECFE5D4E0DEBF5E
:10003000CDBF02D043C0E4CF8FEF87BB14BA42E1FB
:1000400029E130E06CE050E183B390E0887090707B
:10005000989B03C00897C1F72FC0892BA9F718BA3E
:100060008FEF9FEFF9013197F1F70197D9F768BB4F
:100070008FEF9FEFF9013197F1F70197D9F78FEFE4
:100080009FEFF9013197F1F70197D9F78FEF9FEFC4
:10009000F9013197F1F70197D9F758BB8FEF9FEF2F
:1000A000F9013197F1F70197D9F78FEF9FEFF90138
:1000B0003197F1F70197D9F748BBC6CFF894FFCF36
:00000001FF
