:1000000012C019C018C017C016C015C014C013C044
:1000100012C011C010C00FC00EC00DC00CC00BC06C
:100020000AC009C008C011241FBECFE5D4E0DEBF5E
:10003000CDBF02D048C0E4CF8FEF87BB52E029E1AB
:1000400030E048E058BB80E197E2F9013197F1F7E1
:100050000197D9F748BB80E197E2F9013197F1F7B1
:100060000197D9F748BB80E197E2F9013197F1F7A1
:100070000197D9F758BB80E197E2F9013197F1F781
:100080000197D9F748BB80E197E2F9013197F1F781
:100090000197D9F758BB80E197E2F9013197F1F761
:1000A0000197D9F758BB80E197E2F9013197F1F751
:1000B0000197D9F748BB80E197E2F9013197F1F751
:0A00C0000197D9F7BFCFF894FFCFE6
:00000001FF
